{
  "contractName": "SafePayment",
  "abi": [
    {
      "anonymous": false,
      "inputs": [
        {
          "indexed": false,
          "internalType": "address",
          "name": "to",
          "type": "address"
        },
        {
          "indexed": false,
          "internalType": "uint256",
          "name": "ammount",
          "type": "uint256"
        }
      ],
      "name": "EthTransfer",
      "type": "event"
    },
    {
      "anonymous": false,
      "inputs": [
        {
          "indexed": true,
          "internalType": "uint256",
          "name": "eventID",
          "type": "uint256"
        },
        {
          "indexed": true,
          "internalType": "address",
          "name": "validator",
          "type": "address"
        },
        {
          "indexed": false,
          "internalType": "uint256",
          "name": "approvalRate",
          "type": "uint256"
        }
      ],
      "name": "EventApproved",
      "type": "event"
    },
    {
      "anonymous": false,
      "inputs": [
        {
          "indexed": true,
          "internalType": "uint256",
          "name": "eventID",
          "type": "uint256"
        },
        {
          "indexed": true,
          "internalType": "address",
          "name": "issuer",
          "type": "address"
        },
        {
          "indexed": false,
          "internalType": "address[]",
          "name": "parties",
          "type": "address[]"
        },
        {
          "indexed": false,
          "internalType": "address[]",
          "name": "validators",
          "type": "address[]"
        }
      ],
      "name": "EventCreated",
      "type": "event"
    },
    {
      "anonymous": false,
      "inputs": [
        {
          "indexed": true,
          "internalType": "uint256",
          "name": "eventID",
          "type": "uint256"
        },
        {
          "indexed": true,
          "internalType": "address",
          "name": "validator",
          "type": "address"
        },
        {
          "indexed": false,
          "internalType": "uint256",
          "name": "rejectionRate",
          "type": "uint256"
        }
      ],
      "name": "EventRejected",
      "type": "event"
    },
    {
      "inputs": [
        {
          "internalType": "uint256",
          "name": "",
          "type": "uint256"
        }
      ],
      "name": "payments",
      "outputs": [
        {
          "internalType": "uint256",
          "name": "id",
          "type": "uint256"
        },
        {
          "internalType": "address",
          "name": "issuer",
          "type": "address"
        },
        {
          "internalType": "address",
          "name": "receiver",
          "type": "address"
        },
        {
          "internalType": "address",
          "name": "payableTo",
          "type": "address"
        },
        {
          "internalType": "bool",
          "name": "isValidated",
          "type": "bool"
        },
        {
          "internalType": "bool",
          "name": "isApproved",
          "type": "bool"
        },
        {
          "internalType": "bool",
          "name": "isPaid",
          "type": "bool"
        },
        {
          "internalType": "uint256",
          "name": "paymentValue",
          "type": "uint256"
        },
        {
          "internalType": "uint256",
          "name": "validationFee",
          "type": "uint256"
        }
      ],
      "stateMutability": "view",
      "type": "function",
      "constant": true
    },
    {
      "inputs": [
        {
          "internalType": "uint256",
          "name": "paymentValue",
          "type": "uint256"
        },
        {
          "internalType": "uint256",
          "name": "validationFee",
          "type": "uint256"
        },
        {
          "internalType": "address",
          "name": "payableTo",
          "type": "address"
        },
        {
          "internalType": "address[]",
          "name": "validators",
          "type": "address[]"
        }
      ],
      "name": "createPayment",
      "outputs": [
        {
          "internalType": "uint256",
          "name": "",
          "type": "uint256"
        }
      ],
      "stateMutability": "payable",
      "type": "function",
      "payable": true
    },
    {
      "inputs": [
        {
          "internalType": "address",
          "name": "validator",
          "type": "address"
        }
      ],
      "name": "getValidatorIndex",
      "outputs": [
        {
          "internalType": "uint256[]",
          "name": "paymentIDs",
          "type": "uint256[]"
        }
      ],
      "stateMutability": "view",
      "type": "function",
      "constant": true
    },
    {
      "inputs": [
        {
          "internalType": "address",
          "name": "issuer",
          "type": "address"
        }
      ],
      "name": "getIssuerIndex",
      "outputs": [
        {
          "internalType": "uint256[]",
          "name": "paymentIDs",
          "type": "uint256[]"
        }
      ],
      "stateMutability": "view",
      "type": "function",
      "constant": true
    },
    {
      "inputs": [
        {
          "internalType": "address",
          "name": "receiver",
          "type": "address"
        }
      ],
      "name": "getReceiverIndex",
      "outputs": [
        {
          "internalType": "uint256[]",
          "name": "paymentIDs",
          "type": "uint256[]"
        }
      ],
      "stateMutability": "view",
      "type": "function",
      "constant": true
    },
    {
      "inputs": [
        {
          "internalType": "uint256",
          "name": "eventID",
          "type": "uint256"
        }
      ],
      "name": "claimPayment",
      "outputs": [],
      "stateMutability": "nonpayable",
      "type": "function"
    },
    {
      "inputs": [
        {
          "internalType": "uint256",
          "name": "eventID",
          "type": "uint256"
        }
      ],
      "name": "getEventStatus",
      "outputs": [
        {
          "internalType": "bool",
          "name": "isApproved",
          "type": "bool"
        },
        {
          "internalType": "bool",
          "name": "isFinal",
          "type": "bool"
        }
      ],
      "stateMutability": "view",
      "type": "function",
      "constant": true
    },
    {
      "inputs": [
        {
          "internalType": "uint256",
          "name": "eventID",
          "type": "uint256"
        }
      ],
      "name": "getEventRates",
      "outputs": [
        {
          "internalType": "uint256",
          "name": "approvalRate",
          "type": "uint256"
        },
        {
          "internalType": "uint256",
          "name": "rejectRate",
          "type": "uint256"
        }
      ],
      "stateMutability": "view",
      "type": "function",
      "constant": true
    },
    {
      "inputs": [
        {
          "internalType": "uint256",
          "name": "eventID",
          "type": "uint256"
        }
      ],
      "name": "getEventValidators",
      "outputs": [
        {
          "internalType": "address[]",
          "name": "",
          "type": "address[]"
        }
      ],
      "stateMutability": "view",
      "type": "function",
      "constant": true
    },
    {
      "inputs": [
        {
          "internalType": "uint256",
          "name": "eventID",
          "type": "uint256"
        },
        {
          "internalType": "address",
          "name": "validator",
          "type": "address"
        }
      ],
      "name": "isEventValidator",
      "outputs": [
        {
          "internalType": "bool",
          "name": "",
          "type": "bool"
        }
      ],
      "stateMutability": "view",
      "type": "function",
      "constant": true
    },
    {
      "inputs": [
        {
          "internalType": "uint256",
          "name": "eventID",
          "type": "uint256"
        },
        {
          "internalType": "uint256",
          "name": "rejectRate",
          "type": "uint256"
        }
      ],
      "name": "rejectEvent",
      "outputs": [],
      "stateMutability": "nonpayable",
      "type": "function"
    },
    {
      "inputs": [
        {
          "internalType": "uint256",
          "name": "eventID",
          "type": "uint256"
        },
        {
          "internalType": "uint256",
          "name": "approvalRate",
          "type": "uint256"
        }
      ],
      "name": "approveEvent",
      "outputs": [],
      "stateMutability": "nonpayable",
      "type": "function"
    },
    {
      "inputs": [
        {
          "internalType": "uint256",
          "name": "eventID",
          "type": "uint256"
        }
      ],
      "name": "issuerOf",
      "outputs": [
        {
          "internalType": "address",
          "name": "",
          "type": "address"
        }
      ],
      "stateMutability": "view",
      "type": "function",
      "constant": true
    }
  ],
  "bytecode": "0x60806040526001805534801561001457600080fd5b50612252806100246000396000f3fe6080604052600436106100c25760003560e01c80639a4671ff1161007f578063af1194be11610059578063af1194be146102e2578063c63fdcc71461030b578063fc2f5e6b14610334578063fe2af33314610364576100c2565b80639a4671ff1461022a5780639b49d2e214610267578063a4e2ee11146102a5576100c2565b80631fcc449e146100c75780633dcec13e1461010457806363a872691461014257806364c94fbf1461017f57806387d81789146101bc5780639906333a14610201575b600080fd5b3480156100d357600080fd5b506100ee60048036038101906100e9919061160a565b6103a1565b6040516100fb91906116ff565b60405180910390f35b34801561011057600080fd5b5061012b6004803603810190610126919061174d565b610438565b604051610139929190611795565b60405180910390f35b34801561014e57600080fd5b506101696004803603810190610164919061174d565b6104c6565b604051610176919061187c565b60405180910390f35b34801561018b57600080fd5b506101a660048036038101906101a1919061160a565b6105b6565b6040516101b391906116ff565b60405180910390f35b3480156101c857600080fd5b506101e360048036038101906101de919061174d565b61064d565b6040516101f8999897969594939291906118bc565b60405180910390f35b34801561020d57600080fd5b5061022860048036038101906102239190611949565b610722565b005b34801561023657600080fd5b50610251600480360381019061024c9190611989565b6108ff565b60405161025e91906119c9565b60405180910390f35b34801561027357600080fd5b5061028e6004803603810190610289919061174d565b6109b5565b60405161029c9291906119e4565b60405180910390f35b3480156102b157600080fd5b506102cc60048036038101906102c7919061174d565b610a62565b6040516102d99190611a0d565b60405180910390f35b3480156102ee57600080fd5b5061030960048036038101906103049190611949565b610aed565b005b34801561031757600080fd5b50610332600480360381019061032d919061174d565b610cca565b005b61034e60048036038101906103499190611a8d565b610f3a565b60405161035b9190611b15565b60405180910390f35b34801561037057600080fd5b5061038b6004803603810190610386919061160a565b6113ca565b60405161039891906116ff565b60405180910390f35b6060600460008373ffffffffffffffffffffffffffffffffffffffff1673ffffffffffffffffffffffffffffffffffffffff16815260200190815260200160002080548060200260200160405190810160405280929190818152602001828054801561042c57602002820191906000526020600020905b815481526020019060010190808311610418575b50505050509050919050565b600080600080600085815260200190815260200160002090506000816000015403610498576040517f08c379a000000000000000000000000000000000000000000000000000000000815260040161048f90611b8d565b60405180910390fd5b8060060160019054906101000a900460ff168160060160009054906101000a900460ff169250925050915091565b6060600080600084815260200190815260200160002090506000816000015403610525576040517f08c379a000000000000000000000000000000000000000000000000000000000815260040161051c90611b8d565b60405180910390fd5b806005018054806020026020016040519081016040528092919081815260200182805480156105a957602002820191906000526020600020905b8160009054906101000a900473ffffffffffffffffffffffffffffffffffffffff1673ffffffffffffffffffffffffffffffffffffffff168152602001906001019080831161055f575b5050505050915050919050565b6060600560008373ffffffffffffffffffffffffffffffffffffffff1673ffffffffffffffffffffffffffffffffffffffff16815260200190815260200160002080548060200260200160405190810160405280929190818152602001828054801561064157602002820191906000526020600020905b81548152602001906001019080831161062d575b50505050509050919050565b60006020528060005260406000206000915090508060000154908060010160009054906101000a900473ffffffffffffffffffffffffffffffffffffffff16908060020160009054906101000a900473ffffffffffffffffffffffffffffffffffffffff16908060030160009054906101000a900473ffffffffffffffffffffffffffffffffffffffff16908060060160009054906101000a900460ff16908060060160019054906101000a900460ff16908060060160029054906101000a900460ff16908060070154908060080154905089565b60008060008481526020019081526020016000209050600081600001540361077f576040517f08c379a000000000000000000000000000000000000000000000000000000000815260040161077690611b8d565b60405180910390fd5b8060060160009054906101000a900460ff16156107d1576040517f08c379a00000000000000000000000000000000000000000000000000000000081526004016107c890611bf9565b60405180910390fd5b8060040160003373ffffffffffffffffffffffffffffffffffffffff1673ffffffffffffffffffffffffffffffffffffffff16815260200190815260200160002060009054906101000a900460ff1661085f576040517f08c379a000000000000000000000000000000000000000000000000000000000815260040161085690611c8b565b60405180910390fd5b60008160060160016101000a81548160ff02191690831515021790555060018160060160006101000a81548160ff0219169083151502179055506108a7338260080154611461565b3373ffffffffffffffffffffffffffffffffffffffff1681600001547f66ccba49b9c1f3d4487698baa4838e2cb43783f399ddee6e12aaa7aec1d98f5a846040516108f29190611b15565b60405180910390a3505050565b6000806000808581526020019081526020016000209050600081600001540361095d576040517f08c379a000000000000000000000000000000000000000000000000000000000815260040161095490611b8d565b60405180910390fd5b8060040160008473ffffffffffffffffffffffffffffffffffffffff1673ffffffffffffffffffffffffffffffffffffffff16815260200190815260200160002060009054906101000a900460ff1691505092915050565b600080600080600085815260200190815260200160002090506000816000015403610a15576040517f08c379a0000000000000000000000000000000000000000000000000000000008152600401610a0c90611b8d565b60405180910390fd5b8060060160009054906101000a900460ff168015610a4157508060060160019054906101000a900460ff165b15610a5457600160009250925050610a5d565b60008092509250505b915091565b60008060008084815260200190815260200160002090506000816000015403610ac0576040517f08c379a0000000000000000000000000000000000000000000000000000000008152600401610ab790611b8d565b60405180910390fd5b8060010160009054906101000a900473ffffffffffffffffffffffffffffffffffffffff16915050919050565b600080600084815260200190815260200160002090506000816000015403610b4a576040517f08c379a0000000000000000000000000000000000000000000000000000000008152600401610b4190611b8d565b60405180910390fd5b8060060160009054906101000a900460ff1615610b9c576040517f08c379a0000000000000000000000000000000000000000000000000000000008152600401610b9390611bf9565b60405180910390fd5b8060040160003373ffffffffffffffffffffffffffffffffffffffff1673ffffffffffffffffffffffffffffffffffffffff16815260200190815260200160002060009054906101000a900460ff16610c2a576040517f08c379a0000000000000000000000000000000000000000000000000000000008152600401610c2190611c8b565b60405180910390fd5b60018160060160016101000a81548160ff02191690831515021790555060018160060160006101000a81548160ff021916908315150217905550610c72338260080154611461565b3373ffffffffffffffffffffffffffffffffffffffff1681600001547f534beb2d831957b3fd77abe4b81b7756350c913d7c4ae89b82be52fcf6b2552b84604051610cbd9190611b15565b60405180910390a3505050565b600080600083815260200190815260200160002090506000816000015403610d27576040517f08c379a0000000000000000000000000000000000000000000000000000000008152600401610d1e90611cf7565b60405180910390fd5b8060060160009054906101000a900460ff16610d78576040517f08c379a0000000000000000000000000000000000000000000000000000000008152600401610d6f90611d63565b60405180910390fd5b8060060160019054906101000a900460ff1615610e26573373ffffffffffffffffffffffffffffffffffffffff168160020160009054906101000a900473ffffffffffffffffffffffffffffffffffffffff1673ffffffffffffffffffffffffffffffffffffffff1614610e21576040517f08c379a0000000000000000000000000000000000000000000000000000000008152600401610e1890611df5565b60405180910390fd5b610eb9565b3373ffffffffffffffffffffffffffffffffffffffff168160010160009054906101000a900473ffffffffffffffffffffffffffffffffffffffff1673ffffffffffffffffffffffffffffffffffffffff1614610eb8576040517f08c379a0000000000000000000000000000000000000000000000000000000008152600401610eaf90611e87565b60405180910390fd5b5b8060060160029054906101000a900460ff1615610f0b576040517f08c379a0000000000000000000000000000000000000000000000000000000008152600401610f0290611ef3565b60405180910390fd5b610f19338260070154611461565b60018160060160026101000a81548160ff0219169083151502179055505050565b6000348587610f499190611f42565b14610f89576040517f08c379a0000000000000000000000000000000000000000000000000000000008152600401610f809061200a565b60405180910390fd5b3460026000828254610f9b9190611f42565b925050819055506000600154905060016000815480929190610fbc9061202a565b919050555060008060008381526020019081526020016000209050818160000181905550338160010160006101000a81548173ffffffffffffffffffffffffffffffffffffffff021916908373ffffffffffffffffffffffffffffffffffffffff160217905550878160070181905550858160030160006101000a81548173ffffffffffffffffffffffffffffffffffffffff021916908373ffffffffffffffffffffffffffffffffffffffff160217905550858160020160006101000a81548173ffffffffffffffffffffffffffffffffffffffff021916908373ffffffffffffffffffffffffffffffffffffffff16021790555086816008018190555084848260050191906110ce9291906114e5565b5060005b858590508110156111fe5760018260040160008888858181106110f8576110f7612072565b5b905060200201602081019061110d919061160a565b73ffffffffffffffffffffffffffffffffffffffff1673ffffffffffffffffffffffffffffffffffffffff16815260200190815260200160002060006101000a81548160ff0219169083151502179055506004600087878481811061117557611174612072565b5b905060200201602081019061118a919061160a565b73ffffffffffffffffffffffffffffffffffffffff1673ffffffffffffffffffffffffffffffffffffffff16815260200190815260200160002083908060018154018082558091505060019003906000526020600020016000909190919091505580806111f69061202a565b9150506110d2565b50600360003373ffffffffffffffffffffffffffffffffffffffff1673ffffffffffffffffffffffffffffffffffffffff168152602001908152602001600020829080600181540180825580915050600190039060005260206000200160009091909190915055600560008773ffffffffffffffffffffffffffffffffffffffff1673ffffffffffffffffffffffffffffffffffffffff1681526020019081526020016000208290806001815401808255809150506001900390600052602060002001600090919091909150556000600167ffffffffffffffff8111156112e8576112e76120a1565b5b6040519080825280602002602001820160405280156113165781602001602082028036833780820191505090505b509050868160008151811061132e5761132d612072565b5b602002602001019073ffffffffffffffffffffffffffffffffffffffff16908173ffffffffffffffffffffffffffffffffffffffff16815250503373ffffffffffffffffffffffffffffffffffffffff16837f484ba8e3d036f386357838ed3fbe03db240e47ffba39d3184356984eb9109f3d8389896040516113b39392919061215b565b60405180910390a382935050505095945050505050565b6060600360008373ffffffffffffffffffffffffffffffffffffffff1673ffffffffffffffffffffffffffffffffffffffff16815260200190815260200160002080548060200260200160405190810160405280929190818152602001828054801561145557602002820191906000526020600020905b815481526020019060010190808311611441575b50505050509050919050565b8173ffffffffffffffffffffffffffffffffffffffff166108fc829081150290604051600060405180830381858888f193505050501580156114a7573d6000803e3d6000fd5b507f52dd0bb34607da290175a958db259372eab328201b51f87d642b4a2802a9463f82826040516114d99291906121f3565b60405180910390a15050565b828054828255906000526020600020908101928215611574579160200282015b8281111561157357823573ffffffffffffffffffffffffffffffffffffffff168260006101000a81548173ffffffffffffffffffffffffffffffffffffffff021916908373ffffffffffffffffffffffffffffffffffffffff16021790555091602001919060010190611505565b5b5090506115819190611585565b5090565b5b8082111561159e576000816000905550600101611586565b5090565b600080fd5b600080fd5b600073ffffffffffffffffffffffffffffffffffffffff82169050919050565b60006115d7826115ac565b9050919050565b6115e7816115cc565b81146115f257600080fd5b50565b600081359050611604816115de565b92915050565b6000602082840312156116205761161f6115a2565b5b600061162e848285016115f5565b91505092915050565b600081519050919050565b600082825260208201905092915050565b6000819050602082019050919050565b6000819050919050565b61167681611663565b82525050565b6000611688838361166d565b60208301905092915050565b6000602082019050919050565b60006116ac82611637565b6116b68185611642565b93506116c183611653565b8060005b838110156116f25781516116d9888261167c565b97506116e483611694565b9250506001810190506116c5565b5085935050505092915050565b6000602082019050818103600083015261171981846116a1565b905092915050565b61172a81611663565b811461173557600080fd5b50565b60008135905061174781611721565b92915050565b600060208284031215611763576117626115a2565b5b600061177184828501611738565b91505092915050565b60008115159050919050565b61178f8161177a565b82525050565b60006040820190506117aa6000830185611786565b6117b76020830184611786565b9392505050565b600081519050919050565b600082825260208201905092915050565b6000819050602082019050919050565b6117f3816115cc565b82525050565b600061180583836117ea565b60208301905092915050565b6000602082019050919050565b6000611829826117be565b61183381856117c9565b935061183e836117da565b8060005b8381101561186f57815161185688826117f9565b975061186183611811565b925050600181019050611842565b5085935050505092915050565b60006020820190508181036000830152611896818461181e565b905092915050565b6118a781611663565b82525050565b6118b6816115cc565b82525050565b6000610120820190506118d2600083018c61189e565b6118df602083018b6118ad565b6118ec604083018a6118ad565b6118f960608301896118ad565b6119066080830188611786565b61191360a0830187611786565b61192060c0830186611786565b61192d60e083018561189e565b61193b61010083018461189e565b9a9950505050505050505050565b600080604083850312156119605761195f6115a2565b5b600061196e85828601611738565b925050602061197f85828601611738565b9150509250929050565b600080604083850312156119a05761199f6115a2565b5b60006119ae85828601611738565b92505060206119bf858286016115f5565b9150509250929050565b60006020820190506119de6000830184611786565b92915050565b60006040820190506119f9600083018561189e565b611a06602083018461189e565b9392505050565b6000602082019050611a2260008301846118ad565b92915050565b600080fd5b600080fd5b600080fd5b60008083601f840112611a4d57611a4c611a28565b5b8235905067ffffffffffffffff811115611a6a57611a69611a2d565b5b602083019150836020820283011115611a8657611a85611a32565b5b9250929050565b600080600080600060808688031215611aa957611aa86115a2565b5b6000611ab788828901611738565b9550506020611ac888828901611738565b9450506040611ad9888289016115f5565b935050606086013567ffffffffffffffff811115611afa57611af96115a7565b5b611b0688828901611a37565b92509250509295509295909350565b6000602082019050611b2a600083018461189e565b92915050565b600082825260208201905092915050565b7f7061796d656e7420696420646f65736e27742065786973740000000000000000600082015250565b6000611b77601883611b30565b9150611b8282611b41565b602082019050919050565b60006020820190508181036000830152611ba681611b6a565b9050919050565b7f7061796d656e742077617320616c72656164792076616c696461746564000000600082015250565b6000611be3601d83611b30565b9150611bee82611bad565b602082019050919050565b60006020820190508181036000830152611c1281611bd6565b9050919050565b7f6d73672e73656e646572206973206e6f7420612076616c69642076616c69646160008201527f746f7220666f7220746865207061796d656e7400000000000000000000000000602082015250565b6000611c75603383611b30565b9150611c8082611c19565b604082019050919050565b60006020820190508181036000830152611ca481611c68565b9050919050565b7f7061796d656e7420696420646f65736e27742065786973742e00000000000000600082015250565b6000611ce1601983611b30565b9150611cec82611cab565b602082019050919050565b60006020820190508181036000830152611d1081611cd4565b9050919050565b7f7061796d656e74207761736e27742076616c6964617465642e00000000000000600082015250565b6000611d4d601983611b30565b9150611d5882611d17565b602082019050919050565b60006020820190508181036000830152611d7c81611d40565b9050919050565b7f6d73672e73656e646572206973206e6f7420746865207265636569766572206f60008201527f6620746865207061796d656e742e000000000000000000000000000000000000602082015250565b6000611ddf602e83611b30565b9150611dea82611d83565b604082019050919050565b60006020820190508181036000830152611e0e81611dd2565b9050919050565b7f6d73672e73656e646572206973206e6f742074686520697373756572206f662060008201527f74686973207061796d656e742e00000000000000000000000000000000000000602082015250565b6000611e71602d83611b30565b9150611e7c82611e15565b604082019050919050565b60006020820190508181036000830152611ea081611e64565b9050919050565b7f7061796d656e742077617320616c7265616479206d6164652e00000000000000600082015250565b6000611edd601983611b30565b9150611ee882611ea7565b602082019050919050565b60006020820190508181036000830152611f0c81611ed0565b9050919050565b7f4e487b7100000000000000000000000000000000000000000000000000000000600052601160045260246000fd5b6000611f4d82611663565b9150611f5883611663565b9250827fffffffffffffffffffffffffffffffffffffffffffffffffffffffffffffffff03821115611f8d57611f8c611f13565b5b828201905092915050565b7f56616c7565206d75737420626520657175616c207061796d656e7456616c756560008201527f20616e642076616c69646174696f6e4665650000000000000000000000000000602082015250565b6000611ff4603283611b30565b9150611fff82611f98565b604082019050919050565b6000602082019050818103600083015261202381611fe7565b9050919050565b600061203582611663565b91507fffffffffffffffffffffffffffffffffffffffffffffffffffffffffffffffff820361206757612066611f13565b5b600182019050919050565b7f4e487b7100000000000000000000000000000000000000000000000000000000600052603260045260246000fd5b7f4e487b7100000000000000000000000000000000000000000000000000000000600052604160045260246000fd5b6000819050919050565b60006120e960208401846115f5565b905092915050565b6000602082019050919050565b600061210a83856117c9565b9350612115826120d0565b8060005b8581101561214e5761212b82846120da565b61213588826117f9565b9750612140836120f1565b925050600181019050612119565b5085925050509392505050565b60006040820190508181036000830152612175818661181e565b9050818103602083015261218a8184866120fe565b9050949350505050565b6000819050919050565b60006121b96121b46121af846115ac565b612194565b6115ac565b9050919050565b60006121cb8261219e565b9050919050565b60006121dd826121c0565b9050919050565b6121ed816121d2565b82525050565b600060408201905061220860008301856121e4565b612215602083018461189e565b939250505056fea2646970667358221220e69e434e8979dc0ced03f8bcf33d1aa1c5d2d7c394deb776812da45df3102f9964736f6c634300080f0033",
  "immutableReferences": {},
  "source": "// SPDX-License-Identifier: GPL-3.0\n\npragma solidity >=0.7.0 <0.9.0;\n\nimport \"../interfaces/IERCValidableEvent.sol\";\n\n// SafePayment main contract for a safe payment platform.\n// A safe payment event is a payment that can be validated by another party.\ncontract SafePayment is ValidableEvent {\n\n    // Payment struct represents a validable payment event.\n    struct Payment {\n        // payment id\n        uint256 id;\n\n        // Involved Parties\n        address issuer; // issuer address of the payment issuer.\n        address receiver; // Original Receiver\n        address payableTo; // Payment receiver - can be delegated to another by the receiver\n\n        // Validators are the possible transaction validators.\n        mapping(address => bool) isValidator; // mapping for quick check of validators.\n        address[] validators; // list of possible validators.\n\n        // Flags\n        bool isValidated; // has not received any reject or approve\n        bool isApproved; // final approval status.\n        bool isPaid; // if the payment was already made.\n        \n        // Values\n        uint256 paymentValue; // represents the value that must be paid to receiver.\n        uint256 validationFee; // represents the value that will be paid for the validator.\n    }\n\n    // Mapping from paymentID to transaction.\n    mapping(uint256 => Payment) public payments;\n    uint256 nextPaymentID = 1;\n\n    // Contract ethereum balance\n    uint256 private contractBalance;\n\n    // Indexes\n    mapping(address => uint256[]) private issuerIndex;\n    mapping(address => uint256[]) private validatorIndex;\n    mapping(address => uint256[]) private receiverIndex;\n\n\n    /// @notice is the payment event constructor.\n    /// @param paymentValue is the value that must be paid to payable to. It must be sent in the tx value.\n    /// @param validationFee is the fee for the validator. It must be sent in the tx value.\n    /// @param payableTo the address that this payment is addressed to.\n    /// @param validators an array of addresses that can validate this payment.\n    function createPayment(\n        uint256 paymentValue,\n        uint256 validationFee,\n        address payableTo,\n        address[] calldata validators\n    ) public payable returns (uint256) {\n        require(paymentValue + validationFee == msg.value, \"Value must be equal paymentValue and validationFee\");\n        contractBalance += msg.value;\n        \n        uint256 paymentID = nextPaymentID;\n        nextPaymentID++;\n\n        Payment storage p = payments[paymentID];\n        p.id = paymentID;\n        p.issuer = msg.sender;\n        p.paymentValue = paymentValue;\n        p.payableTo = payableTo;\n        p.receiver = payableTo;\n        p.validationFee = validationFee;\n        p.validators = validators;\n        for(uint256 i=0; i < validators.length; i++) {\n            p.isValidator[validators[i]] = true;\n            // validator index\n            validatorIndex[validators[i]].push(paymentID);\n        }\n        issuerIndex[msg.sender].push(paymentID);\n        receiverIndex[payableTo].push(paymentID);\n\n        address[] memory parties = new address[](1);\n        parties[0] = payableTo;\n        emit EventCreated(paymentID, msg.sender, parties, validators);\n\n        return paymentID;\n    }\n\n    /// @notice is the getter for all ids of payments where address passed is a validator\n    /// @param validator address of the validator.\n    function getValidatorIndex(address validator) external view returns(uint256[] memory paymentIDs ) {\n        return validatorIndex[validator];\n    }\n\n    /// @notice is the getter for all ids of payments where address passed is an issuer\n    /// @param issuer address of the issuer.\n    function getIssuerIndex(address issuer) external view returns(uint256[] memory paymentIDs ) {\n        return issuerIndex[issuer];\n    }\n\n    /// @notice is the getter for all ids of payments where address passed is a receiver\n    /// @param receiver address of the receiver.\n    function getReceiverIndex(address receiver) external view returns(uint256[] memory paymentIDs ) {\n        return receiverIndex[receiver];\n    }\n\n     // Event emmited when a transfer is made.\n    event EthTransfer(\n        address  to,\n        uint256  ammount\n    );\n\n    function _transfer(address payable _to, uint256 _ammount) internal {\n        _to.transfer(_ammount);\n        emit EthTransfer(_to, _ammount);\n    }\n\n    /// @notice claimPayment allows the payment target to withdraw the value from the contract after the payment was validated.\n    /// It also allows issuer to retrieve the money is payment was not approved.\n    /// @param eventID is the payment ID.\n    function claimPayment(uint256 eventID) external {\n        Payment storage p = payments[eventID];\n        require(p.id != 0, \"payment id doesn't exist.\");\n        require(p.isValidated, \"payment wasn't validated.\");\n        if (p.isApproved) {\n            require(p.receiver == msg.sender,\"msg.sender is not the receiver of the payment.\");\n        } else {\n            require(p.issuer == msg.sender, \"msg.sender is not the issuer of this payment.\");\n        }\n        require(!p.isPaid, \"payment was already made.\");\n\n        _transfer(payable(msg.sender), p.paymentValue);\n        p.isPaid = true;\n    }\n\n    // IERCValidatable implementation\n\n    /// @notice Get the status of an event. Status is represented by two boleans, isApproved and isFinal.\n    /// @param eventID Identifier of the payment event.\n    /// @return isApproved bool representing if event was approved.\n    /// @return isFinal bool representing if event was validated and isApproved is a final approval status.\n    function getEventStatus(uint256 eventID) external view override returns(bool isApproved, bool isFinal){\n        Payment storage p = payments[eventID];\n        require(p.id != 0, \"payment id doesn't exist\");\n        return (p.isApproved, p.isValidated);\n    }\n\n    /// @notice Get the approval and reject rates of the event.\n    /// For the payment contract, rates are not used.\n    /// @param eventID Identifier of the event.\n    /// @return approvalRate uint256 representing the rate of approval.\n    /// @return rejectRate uint256 representing the rate of rejection.\n    function getEventRates(uint256 eventID) external view override returns(uint256 approvalRate, uint256 rejectRate) {\n        Payment storage p = payments[eventID];\n        require(p.id != 0, \"payment id doesn't exist\");\n        if (p.isValidated && p.isApproved) {\n            return (1, 0);\n        }\n        return (0,0);\n    }\n\n    /// @notice Returns possible addresses that can validate the event with eventID.\n    /// @param eventID Identifier of the event.\n    /// @return address of validator.\n    function getEventValidators(uint256 eventID) external view override returns(address[] memory){ \n        Payment storage p = payments[eventID];\n        require(p.id != 0, \"payment id doesn't exist\");\n        return p.validators;\n    }\n\n    /// @notice Returns a boolean if the address is a possible event validator. \n    /// @param eventID Identifier of the event.\n    /// @param validator Address of the possible validator.\n    /// @return bool representing if validator can approve or reject the event with eventID.\n    function isEventValidator(uint256 eventID, address validator) external view override returns(bool){ \n        Payment storage p = payments[eventID];\n        require(p.id != 0, \"payment id doesn't exist\");\n        return p.isValidator[validator];\n    }\n\n\n    /// @notice allows sender to reject an event. Should raise error if event was already validated.\n    /// For this contract, rates are ignored.\n    /// @param eventID Identifier of the event.\n    /// @param rejectRate A rate that can be used by contracts to measure approval when needed.\n    function rejectEvent(uint256 eventID, uint256 rejectRate) external override {\n        Payment storage p = payments[eventID];\n        require(p.id != 0, \"payment id doesn't exist\");\n        require(!p.isValidated, \"payment was already validated\");\n        require(p.isValidator[msg.sender], \"msg.sender is not a valid validator for the payment\");\n\n        p.isApproved = false;\n        p.isValidated = true;\n        _transfer(payable(msg.sender), p.validationFee);\n        emit EventRejected(p.id, msg.sender, rejectRate);\n    }\n\n    /// @notice allows sender to approve an event. Should raise error if event was already validated.\n    /// @param eventID Identifier of the event.\n    /// @param approvalRate A rate that can be used by contracts to measure approval when needed.\n    function approveEvent(uint256 eventID, uint256 approvalRate) external override {\n        Payment storage p = payments[eventID];\n        require(p.id != 0, \"payment id doesn't exist\");\n        require(!p.isValidated, \"payment was already validated\");\n        require(p.isValidator[msg.sender], \"msg.sender is not a valid validator for the payment\");\n\n        p.isApproved = true;\n        p.isValidated = true;\n        _transfer(payable(msg.sender), p.validationFee);\n        emit EventApproved(p.id, msg.sender, approvalRate);\n    }\n\n    /// @notice should return the issuer of the event.\n    /// @param eventID Identifier of the event.\n    /// @return address of the issuer.\n    function issuerOf(uint256 eventID) external view override returns (address) {\n        Payment storage p = payments[eventID];\n        require(p.id != 0, \"payment id doesn't exist\");\n        return p.issuer;\n    }\n}",
  "sourcePath": "/home/marcosbmf/github/conditional-token/contracts/SafePayment.sol",
  "compiler": {
    "name": "solc",
    "version": "0.8.15+commit.e14f2714.Emscripten.clang"
  },
  "schemaVersion": "3.4.8",
  "updatedAt": "2022-08-08T00:10:41.936Z",
  "networkType": "ethereum",
  "devdoc": {
    "kind": "dev",
    "methods": {
      "approveEvent(uint256,uint256)": {
        "params": {
          "approvalRate": "A rate that can be used by contracts to measure approval when needed.",
          "eventID": "Identifier of the event."
        }
      },
      "claimPayment(uint256)": {
        "params": {
          "eventID": "is the payment ID."
        }
      },
      "createPayment(uint256,uint256,address,address[])": {
        "params": {
          "payableTo": "the address that this payment is addressed to.",
          "paymentValue": "is the value that must be paid to payable to. It must be sent in the tx value.",
          "validationFee": "is the fee for the validator. It must be sent in the tx value.",
          "validators": "an array of addresses that can validate this payment."
        }
      },
      "getEventRates(uint256)": {
        "params": {
          "eventID": "Identifier of the event."
        },
        "returns": {
          "approvalRate": "uint256 representing the rate of approval.",
          "rejectRate": "uint256 representing the rate of rejection."
        }
      },
      "getEventStatus(uint256)": {
        "params": {
          "eventID": "Identifier of the payment event."
        },
        "returns": {
          "isApproved": "bool representing if event was approved.",
          "isFinal": "bool representing if event was validated and isApproved is a final approval status."
        }
      },
      "getEventValidators(uint256)": {
        "params": {
          "eventID": "Identifier of the event."
        },
        "returns": {
          "_0": "address of validator."
        }
      },
      "getIssuerIndex(address)": {
        "params": {
          "issuer": "address of the issuer."
        }
      },
      "getReceiverIndex(address)": {
        "params": {
          "receiver": "address of the receiver."
        }
      },
      "getValidatorIndex(address)": {
        "params": {
          "validator": "address of the validator."
        }
      },
      "isEventValidator(uint256,address)": {
        "params": {
          "eventID": "Identifier of the event.",
          "validator": "Address of the possible validator."
        },
        "returns": {
          "_0": "bool representing if validator can approve or reject the event with eventID."
        }
      },
      "issuerOf(uint256)": {
        "params": {
          "eventID": "Identifier of the event."
        },
        "returns": {
          "_0": "address of the issuer."
        }
      },
      "rejectEvent(uint256,uint256)": {
        "params": {
          "eventID": "Identifier of the event.",
          "rejectRate": "A rate that can be used by contracts to measure approval when needed."
        }
      }
    },
    "version": 1
  },
  "userdoc": {
    "kind": "user",
    "methods": {
      "approveEvent(uint256,uint256)": {
        "notice": "allows sender to approve an event. Should raise error if event was already validated."
      },
      "claimPayment(uint256)": {
        "notice": "claimPayment allows the payment target to withdraw the value from the contract after the payment was validated. It also allows issuer to retrieve the money is payment was not approved."
      },
      "createPayment(uint256,uint256,address,address[])": {
        "notice": "is the payment event constructor."
      },
      "getEventRates(uint256)": {
        "notice": "Get the approval and reject rates of the event. For the payment contract, rates are not used."
      },
      "getEventStatus(uint256)": {
        "notice": "Get the status of an event. Status is represented by two boleans, isApproved and isFinal."
      },
      "getEventValidators(uint256)": {
        "notice": "Returns possible addresses that can validate the event with eventID."
      },
      "getIssuerIndex(address)": {
        "notice": "is the getter for all ids of payments where address passed is an issuer"
      },
      "getReceiverIndex(address)": {
        "notice": "is the getter for all ids of payments where address passed is a receiver"
      },
      "getValidatorIndex(address)": {
        "notice": "is the getter for all ids of payments where address passed is a validator"
      },
      "isEventValidator(uint256,address)": {
        "notice": "Returns a boolean if the address is a possible event validator. "
      },
      "issuerOf(uint256)": {
        "notice": "should return the issuer of the event."
      },
      "rejectEvent(uint256,uint256)": {
        "notice": "allows sender to reject an event. Should raise error if event was already validated. For this contract, rates are ignored."
      }
    },
    "version": 1
  }
}