{
  "contractName": "SafePayment",
  "abi": [
    {
      "anonymous": false,
      "inputs": [
        {
          "indexed": false,
          "internalType": "address",
          "name": "to",
          "type": "address"
        },
        {
          "indexed": false,
          "internalType": "uint256",
          "name": "ammount",
          "type": "uint256"
        }
      ],
      "name": "EthTransfer",
      "type": "event"
    },
    {
      "anonymous": false,
      "inputs": [
        {
          "indexed": true,
          "internalType": "uint256",
          "name": "eventID",
          "type": "uint256"
        },
        {
          "indexed": true,
          "internalType": "address",
          "name": "validator",
          "type": "address"
        },
        {
          "indexed": false,
          "internalType": "uint256",
          "name": "approvalRate",
          "type": "uint256"
        }
      ],
      "name": "EventApproved",
      "type": "event"
    },
    {
      "anonymous": false,
      "inputs": [
        {
          "indexed": true,
          "internalType": "uint256",
          "name": "eventID",
          "type": "uint256"
        },
        {
          "indexed": true,
          "internalType": "address",
          "name": "issuer",
          "type": "address"
        },
        {
          "indexed": false,
          "internalType": "address[]",
          "name": "parties",
          "type": "address[]"
        },
        {
          "indexed": false,
          "internalType": "address[]",
          "name": "validators",
          "type": "address[]"
        }
      ],
      "name": "EventCreated",
      "type": "event"
    },
    {
      "anonymous": false,
      "inputs": [
        {
          "indexed": true,
          "internalType": "uint256",
          "name": "eventID",
          "type": "uint256"
        },
        {
          "indexed": true,
          "internalType": "address",
          "name": "validator",
          "type": "address"
        },
        {
          "indexed": false,
          "internalType": "uint256",
          "name": "rejectionRate",
          "type": "uint256"
        }
      ],
      "name": "EventRejected",
      "type": "event"
    },
    {
      "inputs": [
        {
          "internalType": "uint256",
          "name": "",
          "type": "uint256"
        }
      ],
      "name": "payments",
      "outputs": [
        {
          "internalType": "address",
          "name": "issuer",
          "type": "address"
        },
        {
          "internalType": "address",
          "name": "receiver",
          "type": "address"
        },
        {
          "internalType": "bool",
          "name": "isValidated",
          "type": "bool"
        },
        {
          "internalType": "bool",
          "name": "isApproved",
          "type": "bool"
        },
        {
          "internalType": "bool",
          "name": "isPaid",
          "type": "bool"
        },
        {
          "internalType": "uint256",
          "name": "paymentValue",
          "type": "uint256"
        },
        {
          "internalType": "uint256",
          "name": "validationFee",
          "type": "uint256"
        }
      ],
      "stateMutability": "view",
      "type": "function",
      "constant": true
    },
    {
      "inputs": [
        {
          "internalType": "uint256",
          "name": "paymentValue",
          "type": "uint256"
        },
        {
          "internalType": "uint256",
          "name": "validationFee",
          "type": "uint256"
        },
        {
          "internalType": "address",
          "name": "receiver",
          "type": "address"
        },
        {
          "internalType": "address[]",
          "name": "validators",
          "type": "address[]"
        }
      ],
      "name": "createPayment",
      "outputs": [
        {
          "internalType": "uint256",
          "name": "",
          "type": "uint256"
        }
      ],
      "stateMutability": "payable",
      "type": "function",
      "payable": true
    },
    {
      "inputs": [],
      "name": "getContractLockedValue",
      "outputs": [
        {
          "internalType": "uint256",
          "name": "",
          "type": "uint256"
        }
      ],
      "stateMutability": "view",
      "type": "function",
      "constant": true
    },
    {
      "inputs": [],
      "name": "getTotalPayments",
      "outputs": [
        {
          "internalType": "uint256",
          "name": "",
          "type": "uint256"
        }
      ],
      "stateMutability": "view",
      "type": "function",
      "constant": true
    },
    {
      "inputs": [
        {
          "internalType": "address",
          "name": "validator",
          "type": "address"
        }
      ],
      "name": "getValidatorIndex",
      "outputs": [
        {
          "internalType": "uint256[]",
          "name": "paymentIDs",
          "type": "uint256[]"
        }
      ],
      "stateMutability": "view",
      "type": "function",
      "constant": true
    },
    {
      "inputs": [
        {
          "internalType": "address",
          "name": "issuer",
          "type": "address"
        }
      ],
      "name": "getIssuerIndex",
      "outputs": [
        {
          "internalType": "uint256[]",
          "name": "paymentIDs",
          "type": "uint256[]"
        }
      ],
      "stateMutability": "view",
      "type": "function",
      "constant": true
    },
    {
      "inputs": [
        {
          "internalType": "address",
          "name": "receiver",
          "type": "address"
        }
      ],
      "name": "getReceiverIndex",
      "outputs": [
        {
          "internalType": "uint256[]",
          "name": "paymentIDs",
          "type": "uint256[]"
        }
      ],
      "stateMutability": "view",
      "type": "function",
      "constant": true
    },
    {
      "inputs": [
        {
          "internalType": "uint256",
          "name": "paymentID",
          "type": "uint256"
        }
      ],
      "name": "claimPayment",
      "outputs": [],
      "stateMutability": "nonpayable",
      "type": "function"
    },
    {
      "inputs": [
        {
          "internalType": "uint256",
          "name": "paymentID",
          "type": "uint256"
        }
      ],
      "name": "getEventStatus",
      "outputs": [
        {
          "internalType": "bool",
          "name": "isApproved",
          "type": "bool"
        },
        {
          "internalType": "bool",
          "name": "isFinal",
          "type": "bool"
        }
      ],
      "stateMutability": "view",
      "type": "function",
      "constant": true
    },
    {
      "inputs": [
        {
          "internalType": "uint256",
          "name": "paymentID",
          "type": "uint256"
        }
      ],
      "name": "getEventRates",
      "outputs": [
        {
          "internalType": "uint256",
          "name": "approvalRate",
          "type": "uint256"
        },
        {
          "internalType": "uint256",
          "name": "rejectRate",
          "type": "uint256"
        }
      ],
      "stateMutability": "view",
      "type": "function",
      "constant": true
    },
    {
      "inputs": [
        {
          "internalType": "uint256",
          "name": "paymentID",
          "type": "uint256"
        }
      ],
      "name": "getEventValidators",
      "outputs": [
        {
          "internalType": "address[]",
          "name": "",
          "type": "address[]"
        }
      ],
      "stateMutability": "view",
      "type": "function",
      "constant": true
    },
    {
      "inputs": [
        {
          "internalType": "uint256",
          "name": "paymentID",
          "type": "uint256"
        },
        {
          "internalType": "address",
          "name": "validator",
          "type": "address"
        }
      ],
      "name": "isEventValidator",
      "outputs": [
        {
          "internalType": "bool",
          "name": "",
          "type": "bool"
        }
      ],
      "stateMutability": "view",
      "type": "function",
      "constant": true
    },
    {
      "inputs": [
        {
          "internalType": "uint256",
          "name": "paymentID",
          "type": "uint256"
        },
        {
          "internalType": "uint256",
          "name": "rejectRate",
          "type": "uint256"
        }
      ],
      "name": "rejectEvent",
      "outputs": [],
      "stateMutability": "nonpayable",
      "type": "function"
    },
    {
      "inputs": [
        {
          "internalType": "uint256",
          "name": "paymentID",
          "type": "uint256"
        },
        {
          "internalType": "uint256",
          "name": "approvalRate",
          "type": "uint256"
        }
      ],
      "name": "approveEvent",
      "outputs": [],
      "stateMutability": "nonpayable",
      "type": "function"
    },
    {
      "inputs": [
        {
          "internalType": "uint256",
          "name": "paymentID",
          "type": "uint256"
        }
      ],
      "name": "issuerOf",
      "outputs": [
        {
          "internalType": "address",
          "name": "",
          "type": "address"
        }
      ],
      "stateMutability": "view",
      "type": "function",
      "constant": true
    }
  ],
  "bytecode": "0x60806040526001805534801561001457600080fd5b5061246c806100246000396000f3fe6080604052600436106100e85760003560e01c80639906333a1161008a578063af1194be11610059578063af1194be1461035c578063c63fdcc714610385578063fc2f5e6b146103ae578063fe2af333146103de576100e8565b80639906333a1461027b5780639a4671ff146102a45780639b49d2e2146102e1578063a4e2ee111461031f576100e8565b806363a87269116100c657806363a872691461019357806364c94fbf146101d0578063708f29a61461020d57806387d8178914610238576100e8565b806302787e89146100ed5780631fcc449e146101185780633dcec13e14610155575b600080fd5b3480156100f957600080fd5b5061010261041b565b60405161010f919061184d565b60405180910390f35b34801561012457600080fd5b5061013f600480360381019061013a91906118d0565b610425565b60405161014c91906119bb565b60405180910390f35b34801561016157600080fd5b5061017c60048036038101906101779190611a09565b6104bc565b60405161018a929190611a51565b60405180910390f35b34801561019f57600080fd5b506101ba60048036038101906101b59190611a09565b610596565b6040516101c79190611b38565b60405180910390f35b3480156101dc57600080fd5b506101f760048036038101906101f291906118d0565b6106d2565b60405161020491906119bb565b60405180910390f35b34801561021957600080fd5b50610222610769565b60405161022f919061184d565b60405180910390f35b34801561024457600080fd5b5061025f600480360381019061025a9190611a09565b61077e565b6040516102729796959493929190611b69565b60405180910390f35b34801561028757600080fd5b506102a2600480360381019061029d9190611bd8565b610827565b005b3480156102b057600080fd5b506102cb60048036038101906102c69190611c18565b610a4c565b6040516102d89190611c58565b60405180910390f35b3480156102ed57600080fd5b5061030860048036038101906103039190611a09565b610b4e565b604051610316929190611c73565b60405180910390f35b34801561032b57600080fd5b5061034660048036038101906103419190611a09565b610c47565b6040516103539190611c9c565b60405180910390f35b34801561036857600080fd5b50610383600480360381019061037e9190611bd8565b610d1e565b005b34801561039157600080fd5b506103ac60048036038101906103a79190611a09565b610f43565b005b6103c860048036038101906103c39190611d1c565b6111ff565b6040516103d5919061184d565b60405180910390f35b3480156103ea57600080fd5b50610405600480360381019061040091906118d0565b611643565b60405161041291906119bb565b60405180910390f35b6000600254905090565b6060600460008373ffffffffffffffffffffffffffffffffffffffff1673ffffffffffffffffffffffffffffffffffffffff1681526020019081526020016000208054806020026020016040519081016040528092919081815260200182805480156104b057602002820191906000526020600020905b81548152602001906001019080831161049c575b50505050509050919050565b60008060008060008581526020019081526020016000209050600073ffffffffffffffffffffffffffffffffffffffff168160000160009054906101000a900473ffffffffffffffffffffffffffffffffffffffff1673ffffffffffffffffffffffffffffffffffffffff1603610568576040517f08c379a000000000000000000000000000000000000000000000000000000000815260040161055f90611e01565b60405180910390fd5b8060040160019054906101000a900460ff168160040160009054906101000a900460ff169250925050915091565b606060008060008481526020019081526020016000209050600073ffffffffffffffffffffffffffffffffffffffff168160000160009054906101000a900473ffffffffffffffffffffffffffffffffffffffff1673ffffffffffffffffffffffffffffffffffffffff1603610641576040517f08c379a000000000000000000000000000000000000000000000000000000000815260040161063890611e01565b60405180910390fd5b806003018054806020026020016040519081016040528092919081815260200182805480156106c557602002820191906000526020600020905b8160009054906101000a900473ffffffffffffffffffffffffffffffffffffffff1673ffffffffffffffffffffffffffffffffffffffff168152602001906001019080831161067b575b5050505050915050919050565b6060600560008373ffffffffffffffffffffffffffffffffffffffff1673ffffffffffffffffffffffffffffffffffffffff16815260200190815260200160002080548060200260200160405190810160405280929190818152602001828054801561075d57602002820191906000526020600020905b815481526020019060010190808311610749575b50505050509050919050565b6000600180546107799190611e50565b905090565b60006020528060005260406000206000915090508060000160009054906101000a900473ffffffffffffffffffffffffffffffffffffffff16908060010160009054906101000a900473ffffffffffffffffffffffffffffffffffffffff16908060040160009054906101000a900460ff16908060040160019054906101000a900460ff16908060040160029054906101000a900460ff16908060050154908060060154905087565b60008060008481526020019081526020016000209050600073ffffffffffffffffffffffffffffffffffffffff168160000160009054906101000a900473ffffffffffffffffffffffffffffffffffffffff1673ffffffffffffffffffffffffffffffffffffffff16036108d0576040517f08c379a00000000000000000000000000000000000000000000000000000000081526004016108c790611e01565b60405180910390fd5b8060040160009054906101000a900460ff1615610922576040517f08c379a000000000000000000000000000000000000000000000000000000000815260040161091990611ed0565b60405180910390fd5b8060020160003373ffffffffffffffffffffffffffffffffffffffff1673ffffffffffffffffffffffffffffffffffffffff16815260200190815260200160002060009054906101000a900460ff166109b0576040517f08c379a00000000000000000000000000000000000000000000000000000000081526004016109a790611f62565b60405180910390fd5b60008160040160016101000a81548160ff02191690831515021790555060018160040160006101000a81548160ff0219169083151502179055506109f83382600601546116da565b3373ffffffffffffffffffffffffffffffffffffffff16837f66ccba49b9c1f3d4487698baa4838e2cb43783f399ddee6e12aaa7aec1d98f5a84604051610a3f919061184d565b60405180910390a3505050565b6000806000808581526020019081526020016000209050600073ffffffffffffffffffffffffffffffffffffffff168160000160009054906101000a900473ffffffffffffffffffffffffffffffffffffffff1673ffffffffffffffffffffffffffffffffffffffff1603610af6576040517f08c379a0000000000000000000000000000000000000000000000000000000008152600401610aed90611e01565b60405180910390fd5b8060020160008473ffffffffffffffffffffffffffffffffffffffff1673ffffffffffffffffffffffffffffffffffffffff16815260200190815260200160002060009054906101000a900460ff1691505092915050565b60008060008060008581526020019081526020016000209050600073ffffffffffffffffffffffffffffffffffffffff168160000160009054906101000a900473ffffffffffffffffffffffffffffffffffffffff1673ffffffffffffffffffffffffffffffffffffffff1603610bfa576040517f08c379a0000000000000000000000000000000000000000000000000000000008152600401610bf190611e01565b60405180910390fd5b8060040160009054906101000a900460ff168015610c2657508060040160019054906101000a900460ff165b15610c3957600160009250925050610c42565b60008092509250505b915091565b6000806000808481526020019081526020016000209050600073ffffffffffffffffffffffffffffffffffffffff168160000160009054906101000a900473ffffffffffffffffffffffffffffffffffffffff1673ffffffffffffffffffffffffffffffffffffffff1603610cf1576040517f08c379a0000000000000000000000000000000000000000000000000000000008152600401610ce890611e01565b60405180910390fd5b8060000160009054906101000a900473ffffffffffffffffffffffffffffffffffffffff16915050919050565b60008060008481526020019081526020016000209050600073ffffffffffffffffffffffffffffffffffffffff168160000160009054906101000a900473ffffffffffffffffffffffffffffffffffffffff1673ffffffffffffffffffffffffffffffffffffffff1603610dc7576040517f08c379a0000000000000000000000000000000000000000000000000000000008152600401610dbe90611e01565b60405180910390fd5b8060040160009054906101000a900460ff1615610e19576040517f08c379a0000000000000000000000000000000000000000000000000000000008152600401610e1090611ed0565b60405180910390fd5b8060020160003373ffffffffffffffffffffffffffffffffffffffff1673ffffffffffffffffffffffffffffffffffffffff16815260200190815260200160002060009054906101000a900460ff16610ea7576040517f08c379a0000000000000000000000000000000000000000000000000000000008152600401610e9e90611f62565b60405180910390fd5b60018160040160016101000a81548160ff02191690831515021790555060018160040160006101000a81548160ff021916908315150217905550610eef3382600601546116da565b3373ffffffffffffffffffffffffffffffffffffffff16837f534beb2d831957b3fd77abe4b81b7756350c913d7c4ae89b82be52fcf6b2552b84604051610f36919061184d565b60405180910390a3505050565b60008060008381526020019081526020016000209050600073ffffffffffffffffffffffffffffffffffffffff168160000160009054906101000a900473ffffffffffffffffffffffffffffffffffffffff1673ffffffffffffffffffffffffffffffffffffffff1603610fec576040517f08c379a0000000000000000000000000000000000000000000000000000000008152600401610fe390611e01565b60405180910390fd5b8060040160009054906101000a900460ff1661103d576040517f08c379a000000000000000000000000000000000000000000000000000000000815260040161103490611fce565b60405180910390fd5b8060040160019054906101000a900460ff16156110eb573373ffffffffffffffffffffffffffffffffffffffff168160010160009054906101000a900473ffffffffffffffffffffffffffffffffffffffff1673ffffffffffffffffffffffffffffffffffffffff16146110e6576040517f08c379a00000000000000000000000000000000000000000000000000000000081526004016110dd90612060565b60405180910390fd5b61117e565b3373ffffffffffffffffffffffffffffffffffffffff168160000160009054906101000a900473ffffffffffffffffffffffffffffffffffffffff1673ffffffffffffffffffffffffffffffffffffffff161461117d576040517f08c379a0000000000000000000000000000000000000000000000000000000008152600401611174906120f2565b60405180910390fd5b5b8060040160029054906101000a900460ff16156111d0576040517f08c379a00000000000000000000000000000000000000000000000000000000081526004016111c79061215e565b60405180910390fd5b6111de3382600501546116da565b60018160040160026101000a81548160ff0219169083151502179055505050565b600034858761120e919061217e565b1461124e576040517f08c379a000000000000000000000000000000000000000000000000000000000815260040161124590612224565b60405180910390fd5b3460026000828254611260919061217e565b92505081905550600060015490506001600081548092919061128190612244565b919050555060008060008381526020019081526020016000209050338160000160006101000a81548173ffffffffffffffffffffffffffffffffffffffff021916908373ffffffffffffffffffffffffffffffffffffffff160217905550878160050181905550858160010160006101000a81548173ffffffffffffffffffffffffffffffffffffffff021916908373ffffffffffffffffffffffffffffffffffffffff1602179055508681600601819055508484826003019190611347929190611777565b5060005b858590508110156114775760018260020160008888858181106113715761137061228c565b5b905060200201602081019061138691906118d0565b73ffffffffffffffffffffffffffffffffffffffff1673ffffffffffffffffffffffffffffffffffffffff16815260200190815260200160002060006101000a81548160ff021916908315150217905550600460008787848181106113ee576113ed61228c565b5b905060200201602081019061140391906118d0565b73ffffffffffffffffffffffffffffffffffffffff1673ffffffffffffffffffffffffffffffffffffffff168152602001908152602001600020839080600181540180825580915050600190039060005260206000200160009091909190915055808061146f90612244565b91505061134b565b50600360003373ffffffffffffffffffffffffffffffffffffffff1673ffffffffffffffffffffffffffffffffffffffff168152602001908152602001600020829080600181540180825580915050600190039060005260206000200160009091909190915055600560008773ffffffffffffffffffffffffffffffffffffffff1673ffffffffffffffffffffffffffffffffffffffff1681526020019081526020016000208290806001815401808255809150506001900390600052602060002001600090919091909150556000600167ffffffffffffffff811115611561576115606122bb565b5b60405190808252806020026020018201604052801561158f5781602001602082028036833780820191505090505b50905086816000815181106115a7576115a661228c565b5b602002602001019073ffffffffffffffffffffffffffffffffffffffff16908173ffffffffffffffffffffffffffffffffffffffff16815250503373ffffffffffffffffffffffffffffffffffffffff16837f484ba8e3d036f386357838ed3fbe03db240e47ffba39d3184356984eb9109f3d83898960405161162c93929190612375565b60405180910390a382935050505095945050505050565b6060600360008373ffffffffffffffffffffffffffffffffffffffff1673ffffffffffffffffffffffffffffffffffffffff1681526020019081526020016000208054806020026020016040519081016040528092919081815260200182805480156116ce57602002820191906000526020600020905b8154815260200190600101908083116116ba575b50505050509050919050565b8173ffffffffffffffffffffffffffffffffffffffff166108fc829081150290604051600060405180830381858888f19350505050158015611720573d6000803e3d6000fd5b5080600260008282546117339190611e50565b925050819055507f52dd0bb34607da290175a958db259372eab328201b51f87d642b4a2802a9463f828260405161176b92919061240d565b60405180910390a15050565b828054828255906000526020600020908101928215611806579160200282015b8281111561180557823573ffffffffffffffffffffffffffffffffffffffff168260006101000a81548173ffffffffffffffffffffffffffffffffffffffff021916908373ffffffffffffffffffffffffffffffffffffffff16021790555091602001919060010190611797565b5b5090506118139190611817565b5090565b5b80821115611830576000816000905550600101611818565b5090565b6000819050919050565b61184781611834565b82525050565b6000602082019050611862600083018461183e565b92915050565b600080fd5b600080fd5b600073ffffffffffffffffffffffffffffffffffffffff82169050919050565b600061189d82611872565b9050919050565b6118ad81611892565b81146118b857600080fd5b50565b6000813590506118ca816118a4565b92915050565b6000602082840312156118e6576118e5611868565b5b60006118f4848285016118bb565b91505092915050565b600081519050919050565b600082825260208201905092915050565b6000819050602082019050919050565b61193281611834565b82525050565b60006119448383611929565b60208301905092915050565b6000602082019050919050565b6000611968826118fd565b6119728185611908565b935061197d83611919565b8060005b838110156119ae5781516119958882611938565b97506119a083611950565b925050600181019050611981565b5085935050505092915050565b600060208201905081810360008301526119d5818461195d565b905092915050565b6119e681611834565b81146119f157600080fd5b50565b600081359050611a03816119dd565b92915050565b600060208284031215611a1f57611a1e611868565b5b6000611a2d848285016119f4565b91505092915050565b60008115159050919050565b611a4b81611a36565b82525050565b6000604082019050611a666000830185611a42565b611a736020830184611a42565b9392505050565b600081519050919050565b600082825260208201905092915050565b6000819050602082019050919050565b611aaf81611892565b82525050565b6000611ac18383611aa6565b60208301905092915050565b6000602082019050919050565b6000611ae582611a7a565b611aef8185611a85565b9350611afa83611a96565b8060005b83811015611b2b578151611b128882611ab5565b9750611b1d83611acd565b925050600181019050611afe565b5085935050505092915050565b60006020820190508181036000830152611b528184611ada565b905092915050565b611b6381611892565b82525050565b600060e082019050611b7e600083018a611b5a565b611b8b6020830189611b5a565b611b986040830188611a42565b611ba56060830187611a42565b611bb26080830186611a42565b611bbf60a083018561183e565b611bcc60c083018461183e565b98975050505050505050565b60008060408385031215611bef57611bee611868565b5b6000611bfd858286016119f4565b9250506020611c0e858286016119f4565b9150509250929050565b60008060408385031215611c2f57611c2e611868565b5b6000611c3d858286016119f4565b9250506020611c4e858286016118bb565b9150509250929050565b6000602082019050611c6d6000830184611a42565b92915050565b6000604082019050611c88600083018561183e565b611c95602083018461183e565b9392505050565b6000602082019050611cb16000830184611b5a565b92915050565b600080fd5b600080fd5b600080fd5b60008083601f840112611cdc57611cdb611cb7565b5b8235905067ffffffffffffffff811115611cf957611cf8611cbc565b5b602083019150836020820283011115611d1557611d14611cc1565b5b9250929050565b600080600080600060808688031215611d3857611d37611868565b5b6000611d46888289016119f4565b9550506020611d57888289016119f4565b9450506040611d68888289016118bb565b935050606086013567ffffffffffffffff811115611d8957611d8861186d565b5b611d9588828901611cc6565b92509250509295509295909350565b600082825260208201905092915050565b7f7061796d656e7420696420646f65736e27742065786973742e00000000000000600082015250565b6000611deb601983611da4565b9150611df682611db5565b602082019050919050565b60006020820190508181036000830152611e1a81611dde565b9050919050565b7f4e487b7100000000000000000000000000000000000000000000000000000000600052601160045260246000fd5b6000611e5b82611834565b9150611e6683611834565b9250828203905081811115611e7e57611e7d611e21565b5b92915050565b7f7061796d656e742077617320616c72656164792076616c696461746564000000600082015250565b6000611eba601d83611da4565b9150611ec582611e84565b602082019050919050565b60006020820190508181036000830152611ee981611ead565b9050919050565b7f6d73672e73656e646572206973206e6f7420612076616c69642076616c69646160008201527f746f7220666f7220746865207061796d656e7400000000000000000000000000602082015250565b6000611f4c603383611da4565b9150611f5782611ef0565b604082019050919050565b60006020820190508181036000830152611f7b81611f3f565b9050919050565b7f7061796d656e74207761736e27742076616c6964617465642e00000000000000600082015250565b6000611fb8601983611da4565b9150611fc382611f82565b602082019050919050565b60006020820190508181036000830152611fe781611fab565b9050919050565b7f6d73672e73656e646572206973206e6f7420746865207265636569766572206f60008201527f6620746865207061796d656e742e000000000000000000000000000000000000602082015250565b600061204a602e83611da4565b915061205582611fee565b604082019050919050565b600060208201905081810360008301526120798161203d565b9050919050565b7f6d73672e73656e646572206973206e6f742074686520697373756572206f662060008201527f74686973207061796d656e742e00000000000000000000000000000000000000602082015250565b60006120dc602d83611da4565b91506120e782612080565b604082019050919050565b6000602082019050818103600083015261210b816120cf565b9050919050565b7f7061796d656e742077617320616c7265616479206d6164652e00000000000000600082015250565b6000612148601983611da4565b915061215382612112565b602082019050919050565b600060208201905081810360008301526121778161213b565b9050919050565b600061218982611834565b915061219483611834565b92508282019050808211156121ac576121ab611e21565b5b92915050565b7f56616c7565206d75737420626520657175616c207061796d656e7456616c756560008201527f20616e642076616c69646174696f6e4665650000000000000000000000000000602082015250565b600061220e603283611da4565b9150612219826121b2565b604082019050919050565b6000602082019050818103600083015261223d81612201565b9050919050565b600061224f82611834565b91507fffffffffffffffffffffffffffffffffffffffffffffffffffffffffffffffff820361228157612280611e21565b5b600182019050919050565b7f4e487b7100000000000000000000000000000000000000000000000000000000600052603260045260246000fd5b7f4e487b7100000000000000000000000000000000000000000000000000000000600052604160045260246000fd5b6000819050919050565b600061230360208401846118bb565b905092915050565b6000602082019050919050565b60006123248385611a85565b935061232f826122ea565b8060005b858110156123685761234582846122f4565b61234f8882611ab5565b975061235a8361230b565b925050600181019050612333565b5085925050509392505050565b6000604082019050818103600083015261238f8186611ada565b905081810360208301526123a4818486612318565b9050949350505050565b6000819050919050565b60006123d36123ce6123c984611872565b6123ae565b611872565b9050919050565b60006123e5826123b8565b9050919050565b60006123f7826123da565b9050919050565b612407816123ec565b82525050565b600060408201905061242260008301856123fe565b61242f602083018461183e565b939250505056fea2646970667358221220cc40769a22a21b39a3e09803bb0f75ee6cdf4faa3f42eb455cea90b158ffce2964736f6c63430008100033",
  "immutableReferences": {},
  "source": "// SPDX-License-Identifier: GPL-3.0\n\npragma solidity >=0.7.0 <0.9.0;\n\nimport \"../interfaces/IERCValidableEvent.sol\";\n\n// SafePayment main contract for a safe payment platform.\n// A safe payment event is a payment that can be validated by another party.\ncontract SafePayment is ValidableEvent {\n\n    // Payment struct represents a validable payment event.\n    struct Payment {\n        // Involved Parties\n        address issuer; // issuer address of the payment issuer.\n        address receiver; // Original Receiver\n\n        // Validators are the possible transaction validators.\n        mapping(address => bool) isValidator; // mapping for quick check of validators.\n        address[] validators; // list of possible validators.\n\n        // Flags\n        bool isValidated; // has not received any reject or approve\n        bool isApproved; // final approval status.\n        bool isPaid; // if the payment was already made.\n        \n        // Values\n        uint256 paymentValue; // represents the value that must be paid to receiver.\n        uint256 validationFee; // represents the value that will be paid for the validator.\n    }\n\n    // Mapping from paymentID to transaction.\n    mapping(uint256 => Payment) public payments;\n    uint256 nextPaymentID = 1;\n\n    // Contract ethereum balance\n    uint256 private contractBalance;\n\n    // Indexes\n    mapping(address => uint256[]) private issuerIndex;\n    mapping(address => uint256[]) private validatorIndex;\n    mapping(address => uint256[]) private receiverIndex;\n\n\n    /// @notice is the payment event constructor.\n    /// @param paymentValue is the value that must be paid to payable to. It must be sent in the tx value.\n    /// @param validationFee is the fee for the validator. It must be sent in the tx value.\n    /// @param receiver the address that this payment is addressed to.\n    /// @param validators an array of addresses that can validate this payment.\n    function createPayment(\n        uint256 paymentValue,\n        uint256 validationFee,\n        address receiver,\n        address[] calldata validators\n    ) public payable returns (uint256) {\n        require(paymentValue + validationFee == msg.value, \"Value must be equal paymentValue and validationFee\");\n        contractBalance += msg.value;\n        \n        uint256 paymentID = nextPaymentID;\n        nextPaymentID++;\n\n        Payment storage p = payments[paymentID];\n        p.issuer = msg.sender;\n        p.paymentValue = paymentValue;\n        p.receiver = receiver;\n        p.validationFee = validationFee;\n        p.validators = validators;\n        for(uint256 i=0; i < validators.length; i++) {\n            p.isValidator[validators[i]] = true;\n            // validator index\n            validatorIndex[validators[i]].push(paymentID);\n        }\n        issuerIndex[msg.sender].push(paymentID);\n        receiverIndex[receiver].push(paymentID);\n\n        address[] memory parties = new address[](1);\n        parties[0] = receiver;\n        emit EventCreated(paymentID, msg.sender, parties, validators);\n\n        return paymentID;\n    }\n\n    /// @notice returns the total locked value on the contract\n    function getContractLockedValue() external view returns(uint256) {\n        return contractBalance;\n    }\n\n    /// @notice returns the number of payments created on the contract.\n    function getTotalPayments() external view returns (uint256) {\n        return nextPaymentID - 1;\n    }\n\n    /// @notice is the getter for all ids of payments where address passed is a validator\n    /// @param validator address of the validator.\n    function getValidatorIndex(address validator) external view returns(uint256[] memory paymentIDs ) {\n        return validatorIndex[validator];\n    }\n\n    /// @notice is the getter for all ids of payments where address passed is an issuer\n    /// @param issuer address of the issuer.\n    function getIssuerIndex(address issuer) external view returns(uint256[] memory paymentIDs ) {\n        return issuerIndex[issuer];\n    }\n\n    /// @notice is the getter for all ids of payments where address passed is a receiver\n    /// @param receiver address of the receiver.\n    function getReceiverIndex(address receiver) external view returns(uint256[] memory paymentIDs ) {\n        return receiverIndex[receiver];\n    }\n\n     // Event emmited when a transfer is made.\n    event EthTransfer(\n        address  to,\n        uint256  ammount\n    );\n\n    function _transfer(address payable _to, uint256 _ammount) internal {\n        _to.transfer(_ammount);\n        contractBalance -= _ammount;\n        emit EthTransfer(_to, _ammount);\n    }\n\n    /// @notice claimPayment allows the payment target to withdraw the value from the contract after the payment was validated.\n    /// It also allows issuer to retrieve the money is payment was not approved.\n    /// @param paymentID is the payment ID.\n    function claimPayment(uint256 paymentID) external {\n        Payment storage p = payments[paymentID];\n        require(p.issuer != address(0), \"payment id doesn't exist.\");\n        require(p.isValidated, \"payment wasn't validated.\");\n        if (p.isApproved) {\n            require(p.receiver == msg.sender,\"msg.sender is not the receiver of the payment.\");\n        } else {\n            require(p.issuer == msg.sender, \"msg.sender is not the issuer of this payment.\");\n        }\n        require(!p.isPaid, \"payment was already made.\");\n\n        _transfer(payable(msg.sender), p.paymentValue);\n        p.isPaid = true;\n    }\n\n    // IERCValidatable implementation\n\n    /// @notice Get the status of an event. Status is represented by two boleans, isApproved and isFinal.\n    /// @param paymentID Identifier of the payment event.\n    /// @return isApproved bool representing if event was approved.\n    /// @return isFinal bool representing if event was validated and isApproved is a final approval status.\n    function getEventStatus(uint256 paymentID) external view override returns(bool isApproved, bool isFinal){\n        Payment storage p = payments[paymentID];\n        require(p.issuer != address(0), \"payment id doesn't exist.\");\n        return (p.isApproved, p.isValidated);\n    }\n\n    /// @notice Get the approval and reject rates of the event.\n    /// For the payment contract, rates are not used.\n    /// @param paymentID Identifier of the event.\n    /// @return approvalRate uint256 representing the rate of approval.\n    /// @return rejectRate uint256 representing the rate of rejection.\n    function getEventRates(uint256 paymentID) external view override returns(uint256 approvalRate, uint256 rejectRate) {\n        Payment storage p = payments[paymentID];\n        require(p.issuer != address(0), \"payment id doesn't exist.\");\n        if (p.isValidated && p.isApproved) {\n            return (1, 0);\n        }\n        return (0,0);\n    }\n\n    /// @notice Returns possible addresses that can validate the event with paymentID.\n    /// @param paymentID Identifier of the event.\n    /// @return address of validator.\n    function getEventValidators(uint256 paymentID) external view override returns(address[] memory){ \n        Payment storage p = payments[paymentID];\n        require(p.issuer != address(0), \"payment id doesn't exist.\");\n        return p.validators;\n    }\n\n    /// @notice Returns a boolean if the address is a possible event validator. \n    /// @param paymentID Identifier of the event.\n    /// @param validator Address of the possible validator.\n    /// @return bool representing if validator can approve or reject the event with paymentID.\n    function isEventValidator(uint256 paymentID, address validator) external view override returns(bool){ \n        Payment storage p = payments[paymentID];\n        require(p.issuer != address(0), \"payment id doesn't exist.\");\n        return p.isValidator[validator];\n    }\n\n\n    /// @notice allows sender to reject an event. Should raise error if event was already validated.\n    /// For this contract, rates are ignored.\n    /// @param paymentID Identifier of the event.\n    /// @param rejectRate A rate that can be used by contracts to measure approval when needed.\n    function rejectEvent(uint256 paymentID, uint256 rejectRate) external override {\n        Payment storage p = payments[paymentID];\n        require(p.issuer != address(0), \"payment id doesn't exist.\");\n        require(!p.isValidated, \"payment was already validated\");\n        require(p.isValidator[msg.sender], \"msg.sender is not a valid validator for the payment\");\n\n        p.isApproved = false;\n        p.isValidated = true;\n        _transfer(payable(msg.sender), p.validationFee);\n        emit EventRejected(paymentID, msg.sender, rejectRate);\n    }\n\n    /// @notice allows sender to approve an event. Should raise error if event was already validated.\n    /// @param paymentID Identifier of the event.\n    /// @param approvalRate A rate that can be used by contracts to measure approval when needed.\n    function approveEvent(uint256 paymentID, uint256 approvalRate) external override {\n        Payment storage p = payments[paymentID];\n        require(p.issuer != address(0), \"payment id doesn't exist.\");\n        require(!p.isValidated, \"payment was already validated\");\n        require(p.isValidator[msg.sender], \"msg.sender is not a valid validator for the payment\");\n\n        p.isApproved = true;\n        p.isValidated = true;\n        _transfer(payable(msg.sender), p.validationFee);\n        emit EventApproved(paymentID, msg.sender, approvalRate);\n    }\n\n    /// @notice should return the issuer of the event.\n    /// @param paymentID Identifier of the event.\n    /// @return address of the issuer.\n    function issuerOf(uint256 paymentID) external view override returns (address) {\n        Payment storage p = payments[paymentID];\n        require(p.issuer != address(0), \"payment id doesn't exist.\");\n        return p.issuer;\n    }\n}",
  "sourcePath": "/home/marcosbmf/github/conditional-token/contracts/SafePayment.sol",
  "compiler": {
    "name": "solc",
    "version": "0.8.16+commit.07a7930e.Emscripten.clang"
  },
  "schemaVersion": "3.4.8",
  "updatedAt": "2022-08-21T15:28:38.631Z",
  "networkType": "ethereum",
  "devdoc": {
    "kind": "dev",
    "methods": {
      "approveEvent(uint256,uint256)": {
        "params": {
          "approvalRate": "A rate that can be used by contracts to measure approval when needed.",
          "paymentID": "Identifier of the event."
        }
      },
      "claimPayment(uint256)": {
        "params": {
          "paymentID": "is the payment ID."
        }
      },
      "createPayment(uint256,uint256,address,address[])": {
        "params": {
          "paymentValue": "is the value that must be paid to payable to. It must be sent in the tx value.",
          "receiver": "the address that this payment is addressed to.",
          "validationFee": "is the fee for the validator. It must be sent in the tx value.",
          "validators": "an array of addresses that can validate this payment."
        }
      },
      "getEventRates(uint256)": {
        "params": {
          "paymentID": "Identifier of the event."
        },
        "returns": {
          "approvalRate": "uint256 representing the rate of approval.",
          "rejectRate": "uint256 representing the rate of rejection."
        }
      },
      "getEventStatus(uint256)": {
        "params": {
          "paymentID": "Identifier of the payment event."
        },
        "returns": {
          "isApproved": "bool representing if event was approved.",
          "isFinal": "bool representing if event was validated and isApproved is a final approval status."
        }
      },
      "getEventValidators(uint256)": {
        "params": {
          "paymentID": "Identifier of the event."
        },
        "returns": {
          "_0": "address of validator."
        }
      },
      "getIssuerIndex(address)": {
        "params": {
          "issuer": "address of the issuer."
        }
      },
      "getReceiverIndex(address)": {
        "params": {
          "receiver": "address of the receiver."
        }
      },
      "getValidatorIndex(address)": {
        "params": {
          "validator": "address of the validator."
        }
      },
      "isEventValidator(uint256,address)": {
        "params": {
          "paymentID": "Identifier of the event.",
          "validator": "Address of the possible validator."
        },
        "returns": {
          "_0": "bool representing if validator can approve or reject the event with paymentID."
        }
      },
      "issuerOf(uint256)": {
        "params": {
          "paymentID": "Identifier of the event."
        },
        "returns": {
          "_0": "address of the issuer."
        }
      },
      "rejectEvent(uint256,uint256)": {
        "params": {
          "paymentID": "Identifier of the event.",
          "rejectRate": "A rate that can be used by contracts to measure approval when needed."
        }
      }
    },
    "version": 1
  },
  "userdoc": {
    "kind": "user",
    "methods": {
      "approveEvent(uint256,uint256)": {
        "notice": "allows sender to approve an event. Should raise error if event was already validated."
      },
      "claimPayment(uint256)": {
        "notice": "claimPayment allows the payment target to withdraw the value from the contract after the payment was validated. It also allows issuer to retrieve the money is payment was not approved."
      },
      "createPayment(uint256,uint256,address,address[])": {
        "notice": "is the payment event constructor."
      },
      "getContractLockedValue()": {
        "notice": "returns the total locked value on the contract"
      },
      "getEventRates(uint256)": {
        "notice": "Get the approval and reject rates of the event. For the payment contract, rates are not used."
      },
      "getEventStatus(uint256)": {
        "notice": "Get the status of an event. Status is represented by two boleans, isApproved and isFinal."
      },
      "getEventValidators(uint256)": {
        "notice": "Returns possible addresses that can validate the event with paymentID."
      },
      "getIssuerIndex(address)": {
        "notice": "is the getter for all ids of payments where address passed is an issuer"
      },
      "getReceiverIndex(address)": {
        "notice": "is the getter for all ids of payments where address passed is a receiver"
      },
      "getTotalPayments()": {
        "notice": "returns the number of payments created on the contract."
      },
      "getValidatorIndex(address)": {
        "notice": "is the getter for all ids of payments where address passed is a validator"
      },
      "isEventValidator(uint256,address)": {
        "notice": "Returns a boolean if the address is a possible event validator. "
      },
      "issuerOf(uint256)": {
        "notice": "should return the issuer of the event."
      },
      "rejectEvent(uint256,uint256)": {
        "notice": "allows sender to reject an event. Should raise error if event was already validated. For this contract, rates are ignored."
      }
    },
    "version": 1
  }
}